{
  "contractName": "RockPaperScissors",
  "abi": [
    {
      "inputs": [],
      "stateMutability": "nonpayable",
      "type": "constructor"
    },
    {
      "inputs": [],
      "name": "gameId",
      "outputs": [
        {
          "internalType": "uint256",
          "name": "",
          "type": "uint256"
        }
      ],
      "stateMutability": "view",
      "type": "function"
    },
    {
      "inputs": [
        {
          "internalType": "uint256",
          "name": "",
          "type": "uint256"
        }
      ],
      "name": "games",
      "outputs": [
        {
          "internalType": "uint256",
          "name": "id",
          "type": "uint256"
        },
        {
          "internalType": "uint256",
          "name": "bet",
          "type": "uint256"
        },
        {
          "internalType": "enum RockPaperScissors.State",
          "name": "state",
          "type": "uint8"
        }
      ],
      "stateMutability": "view",
      "type": "function"
    },
    {
      "inputs": [
        {
          "internalType": "uint256",
          "name": "",
          "type": "uint256"
        },
        {
          "internalType": "address",
          "name": "",
          "type": "address"
        }
      ],
      "name": "moves",
      "outputs": [
        {
          "internalType": "bytes32",
          "name": "hash",
          "type": "bytes32"
        },
        {
          "internalType": "uint256",
          "name": "value",
          "type": "uint256"
        }
      ],
      "stateMutability": "view",
      "type": "function"
    },
    {
      "inputs": [
        {
          "internalType": "uint256",
          "name": "",
          "type": "uint256"
        }
      ],
      "name": "winningMoves",
      "outputs": [
        {
          "internalType": "uint256",
          "name": "",
          "type": "uint256"
        }
      ],
      "stateMutability": "view",
      "type": "function"
    },
    {
      "inputs": [
        {
          "internalType": "address payable",
          "name": "_participant",
          "type": "address"
        }
      ],
      "name": "createGame",
      "outputs": [],
      "stateMutability": "payable",
      "type": "function"
    },
    {
      "inputs": [
        {
          "internalType": "uint256",
          "name": "_gameId",
          "type": "uint256"
        }
      ],
      "name": "joinGame",
      "outputs": [],
      "stateMutability": "payable",
      "type": "function"
    },
    {
      "inputs": [
        {
          "internalType": "uint256",
          "name": "_gameId",
          "type": "uint256"
        },
        {
          "internalType": "uint256",
          "name": "_moveId",
          "type": "uint256"
        },
        {
          "internalType": "uint256",
          "name": "_salt",
          "type": "uint256"
        }
      ],
      "name": "commitMove",
      "outputs": [],
      "stateMutability": "nonpayable",
      "type": "function"
    },
    {
      "inputs": [
        {
          "internalType": "uint256",
          "name": "_gameId",
          "type": "uint256"
        },
        {
          "internalType": "uint256",
          "name": "_moveId",
          "type": "uint256"
        },
        {
          "internalType": "uint256",
          "name": "_salt",
          "type": "uint256"
        }
      ],
      "name": "revealMove",
      "outputs": [],
      "stateMutability": "nonpayable",
      "type": "function"
    }
  ],
  "bytecode": "0x608060405234801561001057600080fd5b506003600260006001815260200190815260200160002081905550600160026000600281526020019081526020016000208190555060028060006003815260200190815260200160002081905550611f6a8061006d6000396000f3fe608060405260043610610098576000357c010000000000000000000000000000000000000000000000000000000090048063474d0b5a1161006b578063474d0b5a1461016c5780634b4cbb4514610188578063d7c81b55146101c5578063efaa55a0146101f057610098565b8063117a5b901461009d57806322337a88146100dc57806334d3ce4b1461011a578063354fe54a14610143575b600080fd5b3480156100a957600080fd5b506100c460048036038101906100bf9190611703565b61020c565b6040516100d393929190611cd7565b60405180910390f35b3480156100e857600080fd5b5061010360048036038101906100fe919061172c565b610243565b604051610111929190611b33565b60405180910390f35b34801561012657600080fd5b50610141600480360381019061013c9190611768565b610274565b005b34801561014f57600080fd5b5061016a60048036038101906101659190611768565b610842565b005b610186600480360381019061018191906116da565b611070565b005b34801561019457600080fd5b506101af60048036038101906101aa9190611703565b611327565b6040516101bc9190611cbc565b60405180910390f35b3480156101d157600080fd5b506101da61133f565b6040516101e79190611cbc565b60405180910390f35b61020a60048036038101906102059190611703565b611345565b005b60006020528060005260406000206000915090508060000154908060010154908060030160009054906101000a900460ff16905083565b6001602052816000526040600020602052806000526040600020600091509150508060000154908060010154905082565b60008060008581526020019081526020016000209050600160038111156102c4577f4e487b7100000000000000000000000000000000000000000000000000000000600052602160045260246000fd5b8160030160009054906101000a900460ff16600381111561030e577f4e487b7100000000000000000000000000000000000000000000000000000000600052602160045260246000fd5b1461034e576040517f08c379a000000000000000000000000000000000000000000000000000000000815260040161034590611c3c565b60405180910390fd5b8060020160008154811061038b577f4e487b7100000000000000000000000000000000000000000000000000000000600052603260045260246000fd5b9060005260206000200160009054906101000a900473ffffffffffffffffffffffffffffffffffffffff1673ffffffffffffffffffffffffffffffffffffffff163373ffffffffffffffffffffffffffffffffffffffff161480610481575080600201600181548110610427577f4e487b7100000000000000000000000000000000000000000000000000000000600052603260045260246000fd5b9060005260206000200160009054906101000a900473ffffffffffffffffffffffffffffffffffffffff1673ffffffffffffffffffffffffffffffffffffffff163373ffffffffffffffffffffffffffffffffffffffff16145b6104c0576040517f08c379a00000000000000000000000000000000000000000000000000000000081526004016104b790611bfc565b60405180910390fd5b60006001026001600086815260200190815260200160002060003373ffffffffffffffffffffffffffffffffffffffff1673ffffffffffffffffffffffffffffffffffffffff1681526020019081526020016000206000015414610559576040517f08c379a000000000000000000000000000000000000000000000000000000000815260040161055090611bbc565b60405180910390fd5b60018314806105685750600283145b806105735750600383145b6105b2576040517f08c379a00000000000000000000000000000000000000000000000000000000081526004016105a990611c9c565b60405180910390fd5b604051806040016040528084846040516020016105d0929190611b07565b60405160208183030381529060405280519060200120815260200160008152506001600086815260200190815260200160002060003373ffffffffffffffffffffffffffffffffffffffff1673ffffffffffffffffffffffffffffffffffffffff16815260200190815260200160002060008201518160000155602082015181600101559050506000600102600160008681526020019081526020016000206000836002016000815481106106ae577f4e487b7100000000000000000000000000000000000000000000000000000000600052603260045260246000fd5b9060005260206000200160009054906101000a900473ffffffffffffffffffffffffffffffffffffffff1673ffffffffffffffffffffffffffffffffffffffff1673ffffffffffffffffffffffffffffffffffffffff16815260200190815260200160002060000154141580156107e35750600060010260016000868152602001908152602001600020600083600201600181548110610777577f4e487b7100000000000000000000000000000000000000000000000000000000600052603260045260246000fd5b9060005260206000200160009054906101000a900473ffffffffffffffffffffffffffffffffffffffff1673ffffffffffffffffffffffffffffffffffffffff1673ffffffffffffffffffffffffffffffffffffffff1681526020019081526020016000206000015414155b1561083c5760028160030160006101000a81548160ff02191690836003811115610836577f4e487b7100000000000000000000000000000000000000000000000000000000600052602160045260246000fd5b02179055505b50505050565b600080600085815260200190815260200160002090506000600160008681526020019081526020016000206000836002016000815481106108ac577f4e487b7100000000000000000000000000000000000000000000000000000000600052603260045260246000fd5b9060005260206000200160009054906101000a900473ffffffffffffffffffffffffffffffffffffffff1673ffffffffffffffffffffffffffffffffffffffff1673ffffffffffffffffffffffffffffffffffffffff1681526020019081526020016000209050600060016000878152602001908152602001600020600084600201600181548110610967577f4e487b7100000000000000000000000000000000000000000000000000000000600052603260045260246000fd5b9060005260206000200160009054906101000a900473ffffffffffffffffffffffffffffffffffffffff1673ffffffffffffffffffffffffffffffffffffffff1673ffffffffffffffffffffffffffffffffffffffff168152602001908152602001600020905060006001600088815260200190815260200160002060003373ffffffffffffffffffffffffffffffffffffffff1673ffffffffffffffffffffffffffffffffffffffff168152602001908152602001600020905060026003811115610a5c577f4e487b7100000000000000000000000000000000000000000000000000000000600052602160045260246000fd5b8460030160009054906101000a900460ff166003811115610aa6577f4e487b7100000000000000000000000000000000000000000000000000000000600052602160045260246000fd5b14610ae6576040517f08c379a0000000000000000000000000000000000000000000000000000000008152600401610add90611c7c565b60405180910390fd5b83600201600081548110610b23577f4e487b7100000000000000000000000000000000000000000000000000000000600052603260045260246000fd5b9060005260206000200160009054906101000a900473ffffffffffffffffffffffffffffffffffffffff1673ffffffffffffffffffffffffffffffffffffffff163373ffffffffffffffffffffffffffffffffffffffff161480610c19575083600201600181548110610bbf577f4e487b7100000000000000000000000000000000000000000000000000000000600052603260045260246000fd5b9060005260206000200160009054906101000a900473ffffffffffffffffffffffffffffffffffffffff1673ffffffffffffffffffffffffffffffffffffffff163373ffffffffffffffffffffffffffffffffffffffff16145b610c58576040517f08c379a0000000000000000000000000000000000000000000000000000000008152600401610c4f90611b9c565b60405180910390fd5b8585604051602001610c6b929190611b07565b60405160208183030381529060405280519060200120816000015414610cc6576040517f08c379a0000000000000000000000000000000000000000000000000000000008152600401610cbd90611b7c565b60405180910390fd5b8581600101819055506000836001015414158015610ce957506000826001015414155b1561106657816001015483600101541415610ebe5783600201600081548110610d3b577f4e487b7100000000000000000000000000000000000000000000000000000000600052603260045260246000fd5b9060005260206000200160009054906101000a900473ffffffffffffffffffffffffffffffffffffffff1673ffffffffffffffffffffffffffffffffffffffff166108fc85600101549081150290604051600060405180830381858888f19350505050158015610daf573d6000803e3d6000fd5b5083600201600181548110610ded577f4e487b7100000000000000000000000000000000000000000000000000000000600052603260045260246000fd5b9060005260206000200160009054906101000a900473ffffffffffffffffffffffffffffffffffffffff1673ffffffffffffffffffffffffffffffffffffffff166108fc85600101549081150290604051600060405180830381858888f19350505050158015610e61573d6000803e3d6000fd5b5060038460030160006101000a81548160ff02191690836003811115610eb0577f4e487b7100000000000000000000000000000000000000000000000000000000600052602160045260246000fd5b02179055505050505061106b565b6000826001015460026000866001015481526020019081526020016000205414610f4f5784600201600181548110610f1f577f4e487b7100000000000000000000000000000000000000000000000000000000600052603260045260246000fd5b9060005260206000200160009054906101000a900473ffffffffffffffffffffffffffffffffffffffff16610fb8565b84600201600081548110610f8c577f4e487b7100000000000000000000000000000000000000000000000000000000600052603260045260246000fd5b9060005260206000200160009054906101000a900473ffffffffffffffffffffffffffffffffffffffff165b90508073ffffffffffffffffffffffffffffffffffffffff166108fc86600101546002610fe59190611d1f565b9081150290604051600060405180830381858888f19350505050158015611010573d6000803e3d6000fd5b5060038560030160006101000a81548160ff0219169083600381111561105f577f4e487b7100000000000000000000000000000000000000000000000000000000600052602160045260246000fd5b0217905550505b505050505b505050565b600034116110b3576040517f08c379a00000000000000000000000000000000000000000000000000000000081526004016110aa90611c1c565b60405180910390fd5b6000600267ffffffffffffffff8111156110f6577f4e487b7100000000000000000000000000000000000000000000000000000000600052604160045260246000fd5b6040519080825280602002602001820160405280156111245781602001602082028036833780820191505090505b5090503381600081518110611162577f4e487b7100000000000000000000000000000000000000000000000000000000600052603260045260246000fd5b602002602001019073ffffffffffffffffffffffffffffffffffffffff16908173ffffffffffffffffffffffffffffffffffffffff168152505081816001815181106111d7577f4e487b7100000000000000000000000000000000000000000000000000000000600052603260045260246000fd5b602002602001019073ffffffffffffffffffffffffffffffffffffffff16908173ffffffffffffffffffffffffffffffffffffffff1681525050604051806080016040528060035481526020013481526020018281526020016000600381111561126a577f4e487b7100000000000000000000000000000000000000000000000000000000600052602160045260246000fd5b8152506000806003548152602001908152602001600020600082015181600001556020820151816001015560408201518160020190805190602001906112b19291906115f4565b5060608201518160030160006101000a81548160ff02191690836003811115611303577f4e487b7100000000000000000000000000000000000000000000000000000000600052602160045260246000fd5b02179055509050506003600081548092919061131e90611e2a565b91905055505050565b60026020528060005260406000206000915090505481565b60035481565b6000806000838152602001908152602001600020905080600201600181548110611398577f4e487b7100000000000000000000000000000000000000000000000000000000600052603260045260246000fd5b9060005260206000200160009054906101000a900473ffffffffffffffffffffffffffffffffffffffff1673ffffffffffffffffffffffffffffffffffffffff163373ffffffffffffffffffffffffffffffffffffffff1614611430576040517f08c379a000000000000000000000000000000000000000000000000000000000815260040161142790611c5c565b60405180910390fd5b8060010154341015611477576040517f08c379a000000000000000000000000000000000000000000000000000000000815260040161146e90611bdc565b60405180910390fd5b600060038111156114b1577f4e487b7100000000000000000000000000000000000000000000000000000000600052602160045260246000fd5b8160030160009054906101000a900460ff1660038111156114fb577f4e487b7100000000000000000000000000000000000000000000000000000000600052602160045260246000fd5b1461153b576040517f08c379a000000000000000000000000000000000000000000000000000000000815260040161153290611b5c565b60405180910390fd5b8060010154341061159d573373ffffffffffffffffffffffffffffffffffffffff166108fc8260010154346115709190611d79565b9081150290604051600060405180830381858888f1935050505015801561159b573d6000803e3d6000fd5b505b60018160030160006101000a81548160ff021916908360038111156115eb577f4e487b7100000000000000000000000000000000000000000000000000000000600052602160045260246000fd5b02179055505050565b82805482825590600052602060002090810192821561166d579160200282015b8281111561166c5782518260006101000a81548173ffffffffffffffffffffffffffffffffffffffff021916908373ffffffffffffffffffffffffffffffffffffffff16021790555091602001919060010190611614565b5b50905061167a919061167e565b5090565b5b8082111561169757600081600090555060010161167f565b5090565b6000813590506116aa81611eef565b92915050565b6000813590506116bf81611f06565b92915050565b6000813590506116d481611f1d565b92915050565b6000602082840312156116ec57600080fd5b60006116fa848285016116b0565b91505092915050565b60006020828403121561171557600080fd5b6000611723848285016116c5565b91505092915050565b6000806040838503121561173f57600080fd5b600061174d858286016116c5565b925050602061175e8582860161169b565b9150509250929050565b60008060006060848603121561177d57600080fd5b600061178b868287016116c5565b935050602061179c868287016116c5565b92505060406117ad868287016116c5565b9150509250925092565b6117c081611dd1565b82525050565b6117cf81611e18565b82525050565b60006117e2602083611d0e565b91507f43757272656e74207374617465206d75737420626520617420435245415445446000830152602082019050919050565b6000611822602183611d0e565b91507f4d6f766520696420646f6573206e6f74206d6174636820636f6d6d69746d656e60008301527f74000000000000000000000000000000000000000000000000000000000000006020830152604082019050919050565b6000611888601e83611d0e565b91507f43616e206f6e6c79206265207265676973746572656420706c617965727300006000830152602082019050919050565b60006118c8601e83611d0e565b91507f506c6179657220616c7265616479206d616465207468656972206d6f766500006000830152602082019050919050565b6000611908603283611d0e565b91507f416d6f756e742073656e74206d7573742062652067726561746572206f72206560008301527f7175616c20746f2062657420616d6f756e7400000000000000000000000000006020830152604082019050919050565b600061196e601783611d0e565b91507f4d75737420626520726567697374656420706c617965720000000000000000006000830152602082019050919050565b60006119ae601e83611d0e565b91507f4d7573742073656e6420657468657220746f206372656174652067616d6500006000830152602082019050919050565b60006119ee601d83611d0e565b91507f4d7573742068617665206a6f696e65642067616d6520746f20706c61790000006000830152602082019050919050565b6000611a2e601e83611d0e565b91507f5061727469636970616e74206d757374206265206e657720706c6179657200006000830152602082019050919050565b6000611a6e601e83611d0e565b91507f47616d65206d75737420626520696e20434f4d4d4954454420737461746500006000830152602082019050919050565b6000611aae601a83611d0e565b91507f4d6f7665206d757374206265206265747765656e2031202d20330000000000006000830152602082019050919050565b611aea81611e0e565b82525050565b611b01611afc82611e0e565b611e73565b82525050565b6000611b138285611af0565b602082019150611b238284611af0565b6020820191508190509392505050565b6000604082019050611b4860008301856117b7565b611b556020830184611ae1565b9392505050565b60006020820190508181036000830152611b75816117d5565b9050919050565b60006020820190508181036000830152611b9581611815565b9050919050565b60006020820190508181036000830152611bb58161187b565b9050919050565b60006020820190508181036000830152611bd5816118bb565b9050919050565b60006020820190508181036000830152611bf5816118fb565b9050919050565b60006020820190508181036000830152611c1581611961565b9050919050565b60006020820190508181036000830152611c35816119a1565b9050919050565b60006020820190508181036000830152611c55816119e1565b9050919050565b60006020820190508181036000830152611c7581611a21565b9050919050565b60006020820190508181036000830152611c9581611a61565b9050919050565b60006020820190508181036000830152611cb581611aa1565b9050919050565b6000602082019050611cd16000830184611ae1565b92915050565b6000606082019050611cec6000830186611ae1565b611cf96020830185611ae1565b611d0660408301846117c6565b949350505050565b600082825260208201905092915050565b6000611d2a82611e0e565b9150611d3583611e0e565b9250817fffffffffffffffffffffffffffffffffffffffffffffffffffffffffffffffff0483118215151615611d6e57611d6d611e7d565b5b828202905092915050565b6000611d8482611e0e565b9150611d8f83611e0e565b925082821015611da257611da1611e7d565b5b828203905092915050565b6000611db882611dee565b9050919050565b6000611dca82611dee565b9050919050565b6000819050919050565b6000819050611de982611edb565b919050565b600073ffffffffffffffffffffffffffffffffffffffff82169050919050565b6000819050919050565b6000611e2382611ddb565b9050919050565b6000611e3582611e0e565b91507fffffffffffffffffffffffffffffffffffffffffffffffffffffffffffffffff821415611e6857611e67611e7d565b5b600182019050919050565b6000819050919050565b7f4e487b7100000000000000000000000000000000000000000000000000000000600052601160045260246000fd5b7f4e487b7100000000000000000000000000000000000000000000000000000000600052602160045260246000fd5b60048110611eec57611eeb611eac565b5b50565b611ef881611dad565b8114611f0357600080fd5b50565b611f0f81611dbf565b8114611f1a57600080fd5b50565b611f2681611e0e565b8114611f3157600080fd5b5056fea264697066735822122099a5f755dd0bf36496d9378a7e332886efc2319e0e8872570979de055d0e55f364736f6c63430008000033",
  "immutableReferences": {},
  "source": "// SPDX-License-Identifier: MIT\npragma solidity ^0.8.0;\n\ncontract RockPaperScissors {\n    enum State {\n        CREATED,\n        JOINED,\n        COMMITED,\n        REVEALED\n    }\n\n    struct Game {\n        uint256 id;\n        uint256 bet;\n        address payable[] players;\n        State state;\n    }\n\n    struct Move {\n        bytes32 hash;\n        uint256 value;\n    }\n\n    mapping(uint256 => Game) public games;\n    mapping(uint256 => mapping(address => Move)) public moves;\n    mapping(uint256 => uint256) public winningMoves;\n    uint256 public gameId;\n\n    constructor() {\n        winningMoves[1] = 3;\n        winningMoves[2] = 1;\n        winningMoves[3] = 2;\n    }\n\n    function createGame(address payable _participant) external payable {\n        require(msg.value > 0, \"Must send ether to create game\");\n        address payable[] memory players = new address payable[](2);\n        players[0] = payable(msg.sender);\n        players[1] = _participant;\n\n        games[gameId] = Game(gameId, msg.value, players, State.CREATED);\n        gameId++;\n    }\n\n    function joinGame(uint256 _gameId) external payable {\n        Game storage game = games[_gameId];\n        require(\n            msg.sender == game.players[1],\n            \"Participant must be new player\"\n        );\n        require(\n            msg.value >= game.bet,\n            \"Amount sent must be greater or equal to bet amount\"\n        );\n        require(\n            game.state == State.CREATED,\n            \"Current state must be at CREATED\"\n        );\n        if (msg.value >= game.bet) {\n            payable(msg.sender).transfer(msg.value - game.bet);\n        }\n        game.state = State.JOINED;\n    }\n\n    function commitMove(\n        uint256 _gameId,\n        uint256 _moveId,\n        uint256 _salt\n    ) external {\n        Game storage game = games[_gameId];\n        require(game.state == State.JOINED, \"Must have joined game to play\");\n        require(\n            msg.sender == game.players[0] || msg.sender == game.players[1],\n            \"Must be registed player\"\n        );\n        require(\n            moves[_gameId][msg.sender].hash == 0,\n            \"Player already made their move\"\n        );\n        require(\n            _moveId == 1 || _moveId == 2 || _moveId == 3,\n            \"Move must be between 1 - 3\"\n        );\n        moves[_gameId][msg.sender] = Move(\n            keccak256(abi.encodePacked(_moveId, _salt)),\n            0\n        );\n        if (\n            moves[_gameId][game.players[0]].hash != 0 &&\n            moves[_gameId][game.players[1]].hash != 0\n        ) {\n            game.state = State.COMMITED;\n        }\n    }\n\n    function revealMove(\n        uint256 _gameId,\n        uint256 _moveId,\n        uint256 _salt\n    ) external {\n        Game storage game = games[_gameId];\n        Move storage move1 = moves[_gameId][game.players[0]];\n        Move storage move2 = moves[_gameId][game.players[1]];\n        Move storage moveSender = moves[_gameId][msg.sender];\n        require(game.state == State.COMMITED, \"Game must be in COMMITED state\");\n        require(\n            msg.sender == game.players[0] || msg.sender == game.players[1],\n            \"Can only be registered players\"\n        );\n        require(\n            moveSender.hash == keccak256(abi.encodePacked(_moveId, _salt)),\n            \"Move id does not match commitment\"\n        );\n        moveSender.value = _moveId;\n        if (move1.value != 0 && move2.value != 0) {\n            if (move1.value == move2.value) {\n                game.players[0].transfer(game.bet);\n                game.players[1].transfer(game.bet);\n                game.state = State.REVEALED;\n                return;\n            }\n            address payable winner;\n            winner = winningMoves[move1.value] == move2.value\n                ? game.players[0]\n                : game.players[1];\n            winner.transfer(2 * game.bet);\n            game.state = State.REVEALED;\n        }\n    }\n}\n",
  "sourcePath": "/Users/jasonha/Desktop/demos/smart_contracts/rock-paper-scissors/smart_contract/contracts/RockPaperScissors.sol",
  "compiler": {
    "name": "solc",
    "version": "0.8.0+commit.c7dfd78e.Emscripten.clang"
  },
  "schemaVersion": "3.4.5",
  "updatedAt": "2022-03-10T02:40:16.669Z",
  "devdoc": {
    "kind": "dev",
    "methods": {},
    "version": 1
  },
  "userdoc": {
    "kind": "user",
    "methods": {},
    "version": 1
  }
}